:100000000C9463000C948B000C948B000C94780976
:100010000C9478090C9478090C948B000C948B0048
:100020000C948B000C948B000C948B000C948B0024
:100030000C948B000C948B000C948B000C948B0014
:100040000C942E090C948B000C94FC080C94D6088C
:100050000C948B000C948B000C948B000C948B00F4
:100060000C948B000C948B000000000024002700EF
:100070002A0000000008000201000003040700003D
:1000800000000000000000000000230026002900FE
:1000900000000000250028002B00040404040404D0
:1000A0000404020202020202030303030303010227
:1000B00004081020408001020408102001020408F6
:1000C0001020550A840D11241FBECFEFD8E0DEBFEB
:1000D000CDBF22E0A0E6B1E001C01D92A73AB20771
:1000E000E1F711E0A0E0B1E0EAE7F0E202C005903C
:1000F0000D92A036B107D9F710E0C2E6D0E004C0F7
:100100002197FE010E94270EC136D107C9F70E9430
:10011000A60A0C9430100C9400008CBD9DBD08956F
:100120000895CF93DF93C0E0D1E08091A701909133
:10013000A8016991DC01ED91FC910190F081E02D25
:100140000995B1E0C830DB0781F7DF91CF910895C1
:10015000AF92BF92CF92DF92EF92FF920F931F93D5
:10016000CF93DF936C017B018B01040F151FEB0113
:100170005E01AE18BF08C017D10759F06991D601CA
:10018000ED91FC910190F081E02DC6010995892B3C
:1001900079F7C501DF91CF911F910F91FF90EF90FB
:1001A000DF90CF90BF90AF900895FC01538D448DA8
:1001B000252F30E0842F90E0821B930B541710F012
:1001C000CF96089501970895FC01918D828D98171F
:1001D00061F0A28DAE0FBF2FB11D5D968C91928DF7
:1001E0009F5F9F73928F90E008958FEF9FEF089528
:1001F000FC01918D828D981731F0828DE80FF11DF1
:10020000858D90E008958FEF9FEF0895FC01918D0B
:10021000228D892F90E0805C9F4F821B91098F7304
:100220009927089582EB91E00E94060121E0892B35
:1002300009F420E0822F089580E090E0892B29F0D6
:100240000E94120181110C9400000895FC01A48DFC
:10025000A80FB92FB11DA35ABF4F2C91848D90E0E8
:1002600001968F739927848FA689B7892C93A089CB
:10027000B1898C91837080648C93938D848D981355
:1002800006C00288F389E02D80818F7D80830895E8
:10029000EF92FF920F931F93CF93DF93EC0181E0D6
:1002A000888F9B8D8C8D98131AC0E889F98980817D
:1002B00085FF15C09FB7F894EE89FF896083E889B0
:1002C000F98980818370806480839FBF81E090E0A2
:1002D000DF91CF911F910F91FF90EF900895F62E2F
:1002E0000B8D10E00F5F1F4F0F731127E02E8C8DC9
:1002F0008E110CC00FB607FCFACFE889F98980810E
:1003000085FFF5CFCE010E942601F1CFEB8DEC0FDA
:10031000FD2FF11DE35AFF4FF0829FB7F8940B8F2A
:10032000EA89FB8980818062CFCFCF93DF93EC0194
:10033000888D8823B9F0AA89BB89E889F9898C91CD
:1003400085FD03C0808186FD0DC00FB607FCF7CF89
:100350008C9185FFF2CF808185FFEDCFCE010E9489
:100360002601E9CFDF91CF910895833081F028F401
:10037000813099F08230A9F008958730A9F0883053
:10038000C9F08430B1F4809180008F7D03C08091EA
:1003900080008F7780938000089584B58F7784BD27
:1003A000089584B58F7DFBCF8091B0008F778093C7
:1003B000B00008958091B0008F7DF9CF1F93CF9347
:1003C000DF93282F30E0F901EE58FF4F8491F901B7
:1003D000E255FF4FD491F901E656FF4FC491CC236B
:1003E000A9F0162F81110E94B501EC2FF0E0EE0F5D
:1003F000FF1FE057FF4FA591B4918FB7F894EC9190
:10040000111108C0D095DE23DC938FBFDF91CF910F
:100410001F910895DE2BF8CFCF93DF9390E0FC017E
:10042000E255FF4F249186569F4FFC01849188230B
:10043000D1F090E0880F991FFC01E859FF4FA5917A
:10044000B491FC01E057FF4FC591D49161110EC0EA
:100450009FB7F8948C91E22FE0958E238C9328819E
:10046000E223E8839FBFDF91CF9108958FB7F8947F
:10047000EC91E22BEC938FBFF6CF3FB7F8948091CD
:10048000A1019091A201A091A301B091A40126B570
:10049000A89B05C02F3F19F00196A11DB11D3FBFBC
:1004A000BA2FA92F982F8827BC01CD01620F711D8B
:1004B000811D911D42E0660F771F881F991F4A9585
:1004C000D1F708958F929F92AF92BF92CF92DF9211
:1004D000EF92FF924B015C010E943D026B017C0197
:1004E0000E943D026C197D098E099F09683E734088
:1004F00081059105A8F321E0821A9108A108B108AD
:1005000088EEC80E83E0D81EE11CF11C8114910412
:10051000A104B10429F7FF90EF90DF90CF90BF9036
:10052000AF909F908F900895BC016E5F7F4FDC016C
:10053000ED91FC910190F081E02D40E0099591E072
:10054000811190E0892F089508958EBD00000DB4AB
:1005500007FEFDCF8EB50895DF92EF92FF920F93C5
:100560001F93CF93DF937C01062FD42E152F80E5A8
:1005700090E00E948D0060E0F70186850E94DE0118
:1005800082E10E94A502CD2DD12F0C0F1D2F111D30
:10059000C017D10721F089910E94A502F9CF61E02F
:1005A000F7018685DF91CF911F910F91FF90EF901A
:1005B000DF900C94DE011F93CF93DF93EC01162F95
:1005C00080E590E00E948D0060E08E850E94DE0153
:1005D000812F80680E94A50280E00E94A502182F4A
:1005E00061E08E850E94DE01812FDF91CF911F9106
:1005F00008950F931F93CF93DF93EC01062F142FD1
:1006000080E590E00E948D0060E08E850E94DE0112
:10061000802F0E94A502812F0E94A50261E08E8595
:10062000DF91CF911F910F910C94DE01CF92DF9259
:10063000EF92FF920F931F93CF93DF93EC016B0127
:10064000F42E890140E062E00E94F90244E06AE091
:10065000CE010E94F90240E864E1CE010E94F90255
:10066000A6016F2DCE010E94AC0243E062E0CE01F4
:100670000E94F9028FB7F894C090AA01D090AB0104
:10068000E090AC01F090AD018FBF89E5C80ED11CA0
:10069000E11CF11C6AE0CE010E94DB0282FF1BC05C
:1006A00040E062E0CE010E94F90264E4CE010E94C3
:1006B000DB02F801808362E4CE010E94DB02F801D4
:1006C000818380E0DF91CF911F910F91FF90EF9098
:1006D000DF90CF9008952FB7F8948091AA01909160
:1006E000AB01A091AC01B091AD012FBF8C159D0560
:1006F000AE05BF0578F283E0E5CF2F923F924F928F
:100700005F926F927F928F929F92AF92CF92DF9281
:10071000EF92FF920F931F93CF93DF9300D0CDB74B
:10072000DEB74C012B01D42E390180E0E114F10435
:1007300011F0F70180813C2C329490EF3922380E71
:1007400040E062E0C4010E94F9024FE768E0C401A2
:100750000E94F90240E864E1C4010E94F902A2018A
:100760006D2DC4010E94AC02432D6AE1C4010E94B8
:10077000F9024CE062E0C4010E94F9026AE1C4019E
:100780000E94DB02482F40686AE1C4010E94F9021E
:100790008FB7F8942090AA013090AB014090AC0143
:1007A0005090AD018FBFF4E22F0E311C411C511C43
:1007B00068E0C4010E94DB02982F907309F0C0C06A
:1007C00080FF15C083E00F900F90DF91CF911F91B4
:1007D0000F91FF90EF90DF90CF90AF909F908F9010
:1007E0007F906F905F904F903F902F9008952FB71C
:1007F000F8948091AA019091AB01A091AC01B091C5
:10080000AD012FBF82159305A405B50588F2DACF97
:100810006114710409F469C00115110509F465C07A
:1008200064E1C4010E94DB02382EF8018081831547
:1008300008F480C030823320E1F180E590E00E942E
:100840008D0060E0F40186850E94DE013A9482E921
:100850000E94A502CC20B1F08FEF90E09C0102C075
:10086000220F331FCA94E2F7690182E90E94A502B0
:100870009C2D9095F301208192238C21982B9083BD
:10088000CC24C39423014C0C511CC31440F482E9C2
:100890000E94A502F20181932F01C394F6CF80E05C
:1008A0000E94A502F201808361E0F40186850E9426
:1008B000DE0168E1C4010E94DB028770E114F104EB
:1008C00011F0F701808323FC37C061147104B1F18A
:1008D0000115110599F1AA2089F1F80140814130F3
:1008E00031F4843029F58FEF6ECF80E0ECCF4230C9
:1008F000F8F081111DC042509E012F5F3F4FB301A0
:10090000C4010E94160381115ECFF8019081690E27
:10091000711CF301329720819981291309C0F1E0FC
:100920006F1A7108F30120819A81291709F44BCFBE
:1009300087E049CF84E047CF82E045CF80E043CFD6
:100940006CE0C4010E94DB02282E837109F460CFA1
:1009500081E039CF8F929F92AF92CF92EF92FF9228
:100960000F931F93CF93DF9300D000D01F92CDB78A
:10097000DEB74C0182E08D8340E064E2C4010E9456
:10098000F90240E066E2C4010E94F90246E268E42E
:10099000C4010E94F90286E28B838D818230D8F1F6
:1009A0006CE1C4010E94DB02482F4F776CE1C40167
:1009B0000E94F90287E08C83A12CC12CCE01049601
:1009C0007C018E010B5F1F4F9E012F5F3F4F41E067
:1009D000BE016D5F7F4FC4010E947D03982F81117E
:1009E00017C08D818230B9F48C81811114C081E0EF
:1009F0000F900F900F900F900F90DF91CF911F915C
:100A00000F91FF90EF90CF90AF909F908F900895AF
:100A100081E0923069F380E0EBCF2F923F924F92CA
:100A20005F926F927F928F929F92AF92BF92CF927E
:100A3000DF92EF92FF920F931F93CF93DF93CDB787
:100A4000DEB72D970FB6F894DEBF0FBECDBF16E010
:100A5000413508F04AC1342E3B014C016CE10E9443
:100A6000DB02482F4F776CE1C4010E94F90283E951
:100A70008983332029F081E0F3019081953008F4D7
:100A800080E022242394B12C9B2D990F990F990F6C
:100A9000D32CD91AD7FCD12C32E0882319F098E84E
:100AA0009B8333E021E09D2D977009F420E09D2D7C
:100AB000959595959595290FC9F094E0811193E04E
:100AC000291708F4922FEB2DF0E03196E60DF71D73
:100AD000232F4191A1E0B0E0AC0FBD1FA20FB11DCB
:100AE0004C932F5F422F431B491798F3882311F033
:100AF000F8E0DF0E8FE18D150CF082C090E79A834D
:100B00008B819C8189279D8189279E8189278F835D
:100B10009E01285F3F4F47E0BE016F5F7F4FC401DA
:100B20000E941603182F8111E0C01A86E3E0EB87BC
:100B3000DC86CE0107962C0199E09D87CA844C2D56
:100B40004295407F4C0D6AE1C4010E94F902A12C3C
:100B5000CE010A967C018E01055F1F4F92014D85E3
:100B6000BE016F5F7F4FC4010E947D03182F82304A
:100B700009F065C06CE1C4010E94DB0285FDB5C0CF
:100B80008F7109F480E2282F30E04D2DDD0C550BDC
:100B9000421753070CF09DC0D82EE82FE595E59538
:100BA000E595EF5F982F977081E009F480E0E80FFA
:100BB00081E090E08C0F9D1F8E0F911DFC01215054
:100BC00031092770332781E090E002C0880F991F18
:100BD0002A95E2F79C018081822B80838BCF85E967
:100BE0008983332031F081E0F3019081983008F05F
:100BF0004BCF80E049CF87E9898326E0B22EF9CF39
:100C00009D2D97709A878D2D8595859585958E5FFD
:100C1000282F2295207F290F2A8321E0911101C0DE
:100C200020E0280F2D8744244394512C4C0E5D1E48
:100C3000480E511CE9E0E81BEB87DC867FCF811171
:100C400054C080E2D82E9C8590320CF457CF8B8113
:100C5000883809F040C083E093E0EB2DF0E0319656
:100C6000E60DF71D980FA1E0B0E0AC0FBD1FA80F77
:100C7000B11D2C9121938F5F8913F5CFBB84E3E0E5
:100C8000BE124DC08A8581114AC09E012D5F3F4F23
:100C900041E0B201C4010E941603182F811125C042
:100CA0009B81F201818198133CC09C8182819813C1
:100CB00038C0808182FF12C02394F2E02F1609F41D
:100CC0008ECF83E0281609F496CF91E0291609F417
:100CD000CECE15E00AC082E094E0BFCFF301838757
:100CE000822D880F820D8F5F8083812F2D960FB606
:100CF000F894DEBF0FBECDBFDF91CF911F910F9152
:100D0000FF90EF90DF90CF90BF90AF909F908F902B
:100D10007F906F905F904F903F902F90089511E0DB
:100D2000E4CF17E0E2CFE0E0F1E0838375836683F0
:100D3000E091A501F091A6010994BC0183E00E9415
:100D4000930664E170E080E090E00C9462022091F0
:100D5000B0013091B1012817390771F49091AE01BB
:100D60008091AF01981741F0E091AE01F0E0E05AB8
:100D7000FE4F808190E008958FEF9FEF08950895D2
:100D8000EF92FF920F931F93CF93DF93DC015C965A
:100D9000ED90FC905D97E114F10479F481E090E02E
:100DA00013969C938E93129790E080E0DF91CF9101
:100DB0001F910F91FF90EF9008955196ED91FC9146
:100DC000529750968C915097982F90950FB75E96AA
:100DD0002C915E97122F127021FD6095F89420815E
:100DE000112319F1282B2083E7012197F1F728E03F
:100DF000462F50E0308160FF1AC0382B3083E70166
:100E00002197F1F7BA0175956795215089F711235C
:100E100081F08081892380830FBF5C968D919C91A6
:100E20000197F1F781E090E0C1CF2923DCCF39238E
:100E3000E5CF9081892BEFCF2091B0013091B101A6
:100E40002817390771F48091AF012091AE0190E02D
:100E5000805C9F4F821B910960E470E00E94FF0D4F
:100E6000089590E080E008952091B0013091B101A3
:100E700028173907B9F49091AE018091AF01981706
:100E800089F0E091AE01F0E0E05AFE4F80812091C0
:100E9000AE0130E02F5F3F4F2F7333272093AE0119
:100EA00090E008958FEF9FEF0895E091B001F091E9
:100EB000B101E817F90769F4A389B4899C91858980
:100EC000809589238C931092B1011092B00181E03A
:100ED000089580E00895CF93DF93EC011B8E1A8E66
:100EE000198E188E1F8A1E8A8DE991E09D8F8C8F36
:100EF0008C858631E0F52DEB30E03F8B2E8B2BE996
:100F000031E0398F288F2CE231E03B8F2A8F90918E
:100F10006800883008F44EC021E08E3008F420E0EC
:100F200081E001C0880F2A95EAF7892B8093680039
:100F30009C852DE630E0983050F02BE630E09E3076
:100F400030F02CE630E0963110F030E020E03C8BC1
:100F50002B8B292F30E0983078F581E001C0880F85
:100F60009A95EAF78D8B8C8D9D8D0197F1F78A8D7F
:100F70009B8D892BE1F08091B0019091B101C81750
:100F8000D907A9F0009711F00E9455078E8D8E7F2A
:100F90008E8F1092AF011092AE01D093B101C09329
:100FA000B001EB89FC8980819D89892B8083DF9149
:100FB000CF91089584E0B9CF9E3040F42850310994
:100FC00081E001C0880F2A95EAF7CCCF2E50310975
:100FD000F7CF90E080E008950F931F93CF93DF93B6
:100FE000EC01EDE8F2E04481558160817181E88196
:100FF000F9810280F381E02D09958C01E881F98166
:101000000280F381E02D42E050E06CE371E0CE011C
:101010000995800F911FDF91CF911F910F91089536
:10102000FC0180819181009711F00C94C90E089504
:101030000F931F93CF93DF93EC01888199810097E1
:1010400059F02A813B812617370730F081E0DF9184
:10105000CF911F910F9108958B016F5F7F4F0E9479
:10106000520F009759F0998388831B830A832C8140
:101070003D81232B59F7FC011082E8CF80E0E7CFB8
:10108000EF92FF920F931F93CF93DF93EC017B01BD
:101090008A01BA010E94180828813981811114C07F
:1010A0002115310519F0C9010E94C90E1982188253
:1010B0001D821C821B821A82CE01DF91CF911F916B
:1010C0000F91FF90EF9008951D830C83B701C90124
:1010D0000E942910F1CFFB0101900020E9F7319720
:1010E000AF01461B570B0C944008AF92BF92CF92B2
:1010F000DF92EF92FF920F931F93CF93DF93EC0158
:101100007B015A01CC24C394D12C452B29F4D12C3A
:10111000C12CAA24A394B12C198218821B821A8292
:101120001D821C8250E040E06EE371E0CE010E941F
:101130004008D70114960D911C91C016D106E8F411
:10114000A016B10608F48501D701ED91FC91119725
:10115000E00FF11FB08010826D917C916C0D7D1DB0
:1011600061157105B1F0CE010E946B08F701808115
:101170009181080F191FD801BC92CE01DF91CF9148
:101180001F910F91FF90EF90DF90CF90BF90AF90A5
:10119000089588819981009711F00E94C90E1982E3
:1011A00018821D821C821B821A82E0CF1F920F922E
:1011B0000FB60F9211242F933F934F935F936F932A
:1011C0007F938F939F93AF93BF93EF93FF9382EBA4
:1011D00091E00E942601FF91EF91BF91AF919F9105
:1011E0008F917F916F915F914F913F912F910F90D0
:1011F0000FBE0F901F9018951F920F920FB60F926F
:1012000011242F938F939F93EF93FF93E091C2014B
:10121000F091C3018081E091C801F091C90182FD84
:101220001BC090818091CB018F5F8F732091CC0187
:10123000821741F0E091CB01F0E0EE54FE4F958F24
:101240008093CB01FF91EF919F918F912F910F9000
:101250000FBE0F901F9018958081F4CF1F920F92B0
:101260000FB60F9211242F933F938F939F93AF93B9
:10127000BF938091AA019091AB01A091AC01B09174
:10128000AD013091A00123E0230F2D3758F50196D1
:10129000A11DB11D2093A0018093AA019093AB01E1
:1012A000A093AC01B093AD018091A1019091A201F6
:1012B000A091A301B091A4010196A11DB11D80933D
:1012C000A1019093A201A093A301B093A401BF91A7
:1012D000AF919F918F913F912F910F900FBE0F90E3
:1012E0001F90189526E8230F0296A11DB11DD2CF9D
:1012F0001F920F920FB60F9211242F933F934F938B
:101300005F936F937F938F939F93AF93BF93EF936D
:10131000FF93E091B001F091B101309749F0A685BB
:10132000B7858585968D91FF14C09C918923A1F482
:10133000FF91EF91BF91AF919F918F917F916F91AD
:101340005F914F913F912F910F900FBE0F901F9083
:1013500018959C91892361F7A389B4899C9185890B
:10136000809589238C93868997890197F1F7608D01
:10137000718DA685B785558538E020E0CB010197B2
:10138000F1F7822F90E095958795282F4C91452372
:1013900009F02068315091F7868D81FD209580916C
:1013A000AF0190E001968F7399273091AE01381705
:1013B00099F0A091AF01B0E0A05ABE4F2C9380935A
:1013C000AF01828D938D0197F1F7A389B4898C9138
:1013D0009589892B8C93ACCF868D8160868FF1CFD8
:1013E0000F931F93CF93DF93EC01162F042F1B82D3
:1013F0001A8288EE93E0A0E0B0E08C839D83AE83F8
:10140000BF8382E191E0998388831F8A1E8A198EA7
:10141000188E1B8E1A8E1D8E1C8E6E8D6E7F6D7FAC
:101420006E8F6695617081E06827842F0E94DE01CF
:1014300061E0802F0E940C02802F90E0FC01E255B9
:10144000FF4FE491E88BFC01E656FF4FE491F0E09A
:10145000EE0FFF1FE057FF4F859194919A8B898B78
:1014600060E0812F0E940C028E8D81FD04C061E03E
:10147000812F0E94DE011C87812F90E0FC01E25544
:10148000FF4FE491ED87FC01E656FF4FE491F0E059
:10149000EE0FFF1FEA57FF4F859194919F878E872C
:1014A000DF91CF911F910F910895E2EBF1E013824C
:1014B000128288EE93E0A0E0B0E084839583A68357
:1014C000B78384E291E09183808385EC90E09587F7
:1014D000848784EC90E09787868780EC90E0918BFE
:1014E000808B81EC90E0938B828B82EC90E0958BEB
:1014F000848B86EC90E0978B868B118E128E138EE8
:10150000148EE3E9F2E086E391E0918380838AE040
:10151000868789E08787EDE8F2E0118210821382E6
:1015200012821582148250E040E06EE371E0CF0138
:101530000E94400847E066E08EE692E00E94F009D3
:1015400045E064E08FE492E00C94F009CF93DF93E0
:10155000CDB7DEB765970FB6F894DEBF0FBECDBF2F
:10156000789484B5826084BD84B5816084BD85B57E
:10157000826085BD85B5816085BD80916E0081608A
:1015800080936E0010928100809181008260809330
:101590008100809181008160809381008091800032
:1015A0008160809380008091B10084608093B1005D
:1015B0008091B00081608093B00080917A00846057
:1015C00080937A0080917A00826080937A00809183
:1015D0007A00816080937A0080917A00806880939D
:1015E0007A001092C100E091C201F091C30182E043
:1015F0008083E091BE01F091BF011082E091C001B3
:10160000F091C1018FEC80831092CA01E091C60174
:10161000F091C70186E08083E091C401F091C5019B
:10162000808180618083E091C401F091C501808157
:1016300088608083E091C401F091C5018081806859
:101640008083E091C401F091C50180818F7D80830A
:101650008EE692E00E946B078FE492E00E946B0797
:1016600064EF71E080E090E00E9462028EE692E01A
:101670009093A8018093A70181E990E09093A6013F
:101680008093A50162E070E089E00E94930661E02A
:101690007FE082E20E94930669E170E086E00E94AA
:1016A000930664E170E080E090E00E9462021FB760
:1016B000F8948091A901811127C0E4EAF0E08491B7
:1016C000E8EBF0E09491E82FF0E0EE0FFF1FE8590F
:1016D000FF4FA591B491EC91E92321F461E08AE0F8
:1016E0000E94DE0161E08AE00E940C028CB58061FC
:1016F0008CBD8CB580648CBD61E08DE00E940C02D5
:1017000061E08BE00E940C028091A9018F5F8093C1
:10171000A9011FBF61E08091A1020E940C0261E05B
:101720008091A1020E94DE018091A2028F3F09F404
:10173000F7C060E00E940C022091A20230E0F901A3
:10174000EE58FF4F8491F901E255FF4F0491F901E2
:10175000E656FF4F14911111D4C061E08091A202AE
:101760000E940C0260E08091A2020E94DE0183E0F0
:1017700090E00197F1F761E08091A2020E94DE0102
:1017800062E370E080E090E00E94620240E064E288
:1017900083E992E00E94F90240E066E283E992E088
:1017A0000E94F90246E268E483E992E00E94F902AD
:1017B00040E864E583E992E00E94F90249EA66E5BF
:1017C00083E992E00E94F90243E068E583E992E050
:1017D0000E94F90248EE6AE583E992E00E94F9026C
:1017E00040E46AE283E992E00E94F9024DE362E29A
:1017F00083E992E00E94F90268E283E992E00E94A4
:10180000DB02982F9370933039F0482F436068E2E1
:1018100083E992E00E94F90261E083E00E940C02F9
:1018200060E083E00E94DE0161E082E00E940C0241
:1018300080E0E82E80E0F82E61E082E00E94DE0188
:1018400083E992E00E94AA04882309F4DCC083E9BA
:1018500092E00E949402882309F4D5C0198A188A5C
:101860001B8A1A8A1D8A1C8A50E040E06EE371E0F0
:10187000CE0140960E944008D12C80919502D81646
:1018800008F065C0ED2DF0E0ED56FD4F83811B861D
:101890001A861D861C861F861E864AE0BE016F5F63
:1018A0007F4F90E00E949E0DBE016F5F7F4FCE0183
:1018B0000A960E946B08AA84BB84A114B104D9F0D3
:1018C0000E851F8501151105B1F08C899D89080FC2
:1018D000191FB801CE0140960E941808882359F0BC
:1018E000288939898C899D89B501820F931F0E94AF
:1018F00029101D8B0C8BCE010A960E941008D394E0
:10190000BCCF81110E94B501E12FF0E0EE0FFF1F67
:10191000EA57FF4FA591B491EC910E2309F41DCF26
:101920004FE062E083E992E00E94F90213E062E393
:1019300070E080E090E00E94620262E083E992E061
:101940000E94DB0284FF22CF115089F71FCF088944
:1019500019890115110571F0F80181918F01882312
:1019600049F0082E000C990B0E940F10F8013197D6
:101970008083F2CF4C895D89BE01605F7F4FCE01CD
:1019800001960E94750889819A8100E910E0892BEF
:1019900011F410E000E0CE0101960E941008012B26
:1019A00071F14C895D89BE01605F7F4FCE01019668
:1019B0000E94750880918D0290918E02009709F423
:1019C00059C069817A816115710509F451C040914E
:1019D0008F02509190022D813E814217530708F4E7
:1019E00047C00E9429108D819E819093920280931E
:1019F00091021E821D82CE0101960E941008CE0126
:101A000040960E9410088091910290919202892B39
:101A100009F453C000918D0210918E026FE371E0C2
:101A2000C8010E942010892BE1F561E083E00E944B
:101A3000DE0160E082E00E94DE0189E090E00E9429
:101A40009D0668E873E180E090E00E94620260E039
:101A500083E00E94DE0161E082E00E94DE0182EB11
:101A600091E00E94EC078FE492E00E94EC0725C011
:101A70000E94C90E89819A8190938E0280938D0273
:101A80008B819C819093900280938F028D819E81A7
:101A900090939202809391021A8219821C821B8277
:101AA000A8CF69E471E0C8010E942010892B09F4D5
:101AB000BCCFF8018081811112C06EE371E08DE826
:101AC00092E00E946B08E114F10409F4B5CE0E9483
:101AD0001201882309F4B0CE0E940000ADCE82E04E
:101AE00090E00E949D0660ED77E080E090E00E942B
:101AF000620246E050E068E571E082EB91E00E940E
:101B0000A80082EB91E0B1CFCF93DF93C2E1D1E0A7
:101B1000D0935002C0934F028FE492E00E94550789
:101B2000D0936F02C0936E028EE692E00E9455073A
:101B30008DE892E0DF91CF910C941008BB27FB0158
:101B40005527AA27880F991FAA1FA41710F0A41BB6
:101B500083955051B9F7A05DAA3308F0A95DA19310
:101B6000009779F7B111B1931192CB010C94B80D94
:101B7000DC01FC01672F71917723E1F7329704C0F4
:101B80007C916D9370836291AE17BF07C8F308957F
:101B90002F923F924F925F926F927F928F929F927D
:101BA000AF92BF92CF92DF92EF92FF920F931F936B
:101BB000CF93DF93CDB7DEB7CA1BDB0B0FB6F8941C
:101BC000DEBF0FBECDBF09942A88398848885F845C
:101BD0006E847D848C849B84AA84B984C884DF80CD
:101BE000EE80FD800C811B81AA81B981CE0FD11DB1
:101BF0000FB6F894DEBF0FBECDBFED01089597FB81
:101C0000072E16F4009407D077FD09D00E94130E1A
:101C100007FC05D03EF4909581959F4F08957095EF
:101C200061957F4F0895AA1BBB1B51E107C0AA1FF6
:101C3000BB1FA617B70710F0A61BB70B881F991F6D
:101C40005A95A9F780959095BC01CD010895EE0FA6
:101C5000FF1F0590F491E02D09940F931F93CF93EC
:101C6000DF938230910510F482E090E0E091A502CC
:101C7000F091A60230E020E0B0E0A0E0309799F4C7
:101C80002115310509F44AC0281B390B24303105D0
:101C9000D8F58A819B816115710589F1FB019383D8
:101CA0008283FE0111C04081518102811381481756
:101CB0005907E0F04817590799F4109761F0129608
:101CC0000C93129713961C933296CF01DF91CF910C
:101CD0001F910F9108950093A5021093A602F4CFCF
:101CE0002115310551F04217530738F0A901DB01E6
:101CF0009A01BD01DF01F801C1CFEF01F9CF909347
:101D0000A6028093A502CDCFFE01E20FF31F8193BF
:101D100091932250310939832883D7CF2091A30290
:101D20003091A402232B41F420910A0130910B0140
:101D30003093A4022093A30220910801309109015D
:101D40002115310541F42DB73EB740910C0150915A
:101D50000D01241B350BE091A302F091A402E217C0
:101D6000F307A0F42E1B3F0B2817390778F0AC01BE
:101D70004E5F5F4F2417350748F04E0F5F1F50939B
:101D8000A4024093A302819391939FCFF0E0E0E0FF
:101D90009CCFCF93DF930097E9F0FC013297138239
:101DA0001282A091A502B091A602ED0130E020E0E0
:101DB0001097A1F420813181820F931F2091A302FB
:101DC0003091A4022817390709F061C0F093A402EA
:101DD000E093A302DF91CF910895EA01CE17DF07C8
:101DE000E8F54A815B819E0141155105B1F7E90192
:101DF000FB83EA8349915991C40FD51FEC17FD0766
:101E000061F4808191810296840F951FE901998385
:101E10008883828193819B838A83F0E0E0E012963D
:101E20008D919C9113970097B9F52D913C91119745
:101E3000CD010296820F931F2091A3023091A4023C
:101E40002817390739F6309751F51092A6021092EB
:101E5000A502B093A402A093A302BCCFD383C283F4
:101E600040815181840F951FC817D90761F44E5FD7
:101E70005F4F88819981480F591F518340838A8120
:101E80009B81938382832115310509F0B0CFF093B4
:101E9000A602E093A5029ECFFD01DC01C0CF138214
:101EA0001282D7CFB0E0A0E0E8E5FFE00C94CA0DC5
:101EB0008C01009751F4CB010E942D0E8C01C801BA
:101EC000CDB7DEB7E0E10C94E60DFC01E60FF71F9D
:101ED0009C0122503109E217F30708F49DC0D90193
:101EE000CD91DC911197C617D70798F0C530D10571
:101EF00030F3CE0104978617970708F3C61BD70B5C
:101F00002297C193D1936D937C93CF010E94C90E08
:101F1000D6CF5B01AC1ABD0A4C018C0E9D1EA09160
:101F2000A502B091A602512C412CF12CE12C109766
:101F300031F58091A3029091A4028815990509F0CA
:101F40005CC04616570608F058C080910801909171
:101F50000901009741F48DB79EB740910C01509153
:101F60000D01841B950BE817F90708F055C0F09395
:101F7000A402E093A302F90171836083A0CF8D9145
:101F80009C91119712966C90129713967C901397D0
:101F9000A815B90559F56C0142E0C40ED11CCA144C
:101FA000DB0420F1AC014A195B09DA01129615979E
:101FB00080F06282738251834083D9016D937C9358
:101FC000E114F10471F0D7011396FC93EE9312978C
:101FD00076CF22968C0F9D1FF90191838083F301A8
:101FE000EFCFF093A602E093A50269CF48165906F9
:101FF00008F42C017D01D3019ACFCB010E942D0E54
:102000007C01009749F0AE01B8010E941710C80189
:102010000E94C90E870153CF10E000E050CF91110C
:10202000089581568A5108F4805285580895FB011D
:10203000DC0102C001900D9241505040D8F7089544
:10204000FB01DC018D91019080190110D9F3990BEE
:102050000895FB01DC0101900D920020E1F7089545
:1020600010E0C2E6D0E004C0FE010E94270E2196D7
:0A207000C336D107C9F7F894FFCF7B
:10207A007EFF0600000000EF0000A70280000000BB
:10208A000000C006A800E907BF061C073407A70618
:10209A00000000004801A800D50095010601E400EF
:1020AA00F800000000000D05AA0494020D0A00348D
:1020BA00383234313231333900313330323034331B
:1020CA003637363136313000544147203A20000045
:00000001FF
